:020000041000EA
:10000000002008205D0100101B0100101D010010E0
:100010001101001011010010110100101101001058
:100020001901001019010010190100101F01001022
:10003000110100101901001021010010230100100E
:100040001101001011010010110100101101001028
:100050001101001011010010110100101101001018
:100060001101001011010010110100101101001008
:1000700011010010110100101101001011010010F8
:1000800011010010110100101101001011010010E8
:1000900011010010110100101101001011010010D8
:1000A00011010010110100101101001011010010C8
:1000B00011010010110100101101001011010010B8
:1000C00011010010110100101101001011010010A8
:1000D0001101001011010010110100101101001098
:1000E0001101001011010010110100101101001088
:1000F0001101001011010010110100101101001078
:100100001101001011010010110100101101001067
:10011000EFF30580103800BE00BE00BE00BE00BE7A
:1001200000BE00BEF2EB88715C7100107C710010A3
:10013000A001001090A31AE7D3DEFFFF42012110B7
:10014000FF010000987D0000793512AB4FF00000F0
:100150001E49086006C881F3088810474FF05040D8
:10016000006810B14FF00000F2E70DA40ECC00299A
:1001700002D000F012F8F9E71549164A002000E015
:1001800001C19142FCD11449884714498847144958
:10019000884700BEFDE701C901C29A42FBD3704700
:1001A0007C71001010010020640E0020D07E001031
:1001B0000000082000000820D07E00100010082059
:1001C00000100820000000007047000008ED00E06B
:1001D000640E00208C1A0020BD2E00108503001034
:1001E000812E0010F8B500BF064B0749C91A8910C7
:1001F00048BF0131491003D0044B0BB101481847E7
:10020000704700BF640E0020640E00200000000054
:1002100008B5054B1BB105490548AFF30080BDE8A3
:100220000840FFF7E1BF00BF000000001C1A0020DB
:10023000F862001000EB80008000094B0344084680
:1002400001B110218A4038B10649186842400A407D
:1002500003F580531A6070474FF6FF71F5E700BF52
:100260000C800A400000FFFF10B507EE900AB7EEC1
:10027000007AF4EEC77AF1EE10FA16DDF7EE007AA6
:10028000F5EEC07AF1EE10FA19DCF5EEC07AF1EE77
:1002900010FA27D4002211460720FFF7CBFF0022D7
:1002A00001210720FFF7C6FF10BDBFEE007AF4EE74
:1002B000C77AF1EE10FAE3D5FFEE007AE5E79FED9D
:1002C000137A67EE877AFCEEE77A17EE903A9AB2E5
:1002D00000210720FFF7AEFF002201210720FFF7D2
:1002E000A9FFE1E79FED097A67EEC77AFCEEE77AAE
:1002F00017EE903A9CB2002211460720FFF79AFFB2
:10030000224601210720FFF795FFCDE700C0794481
:1003100010B50446042100F079F81F2C1BD8C4F353
:10032000420000EB80039B0003F1804303F5282388
:1003300040F2E7321A614FF4FA625A6000EB800033
:10034000800000F180401B68DB4303F0010300F5EF
:100350002920036010BDC4F341000830E1E708B56F
:100360000E20FFF7D5FF0F20FFF7D2FF0022114626
:100370000720FFF75FFF002201210720FFF75AFF48
:1003800008BD000008B502F0ADFE4FF4FA6000F0C1
:100390004BFF184802F0AAFEFFF7E1FF164802F0F3
:1003A000A5FE1648FFF760FF4FF4FA6000F03CFF2F
:1003B000134D284602F09AFE00242046FFF754FF12
:1003C0004FF47A7000F030FF0E4802F08FFE0E48B6
:1003D000FFF74AFF4FF4FA6000F026FF284602F0CC
:1003E00085FE2046FFF740FF4FF47A7000F01CFFB7
:1003F000D4E700BFF86200100C6300103333333FC2
:100400001863001020630010333333BF0C4B03EB31
:10041000800253F8203083F0400303F0C00302F55C
:10042000805CCCF80030C00000F1804000F5203046
:10043000416002F540524FF480731360704700BF73
:10044000048003400FB400B583B0049C074802F059
:100450004DFE3CB105A90191204602F057FE04482B
:1004600002F044FE012002F009FD00BF2C630010E1
:100470003C630010EFF3108072B6064BD3E8CF1F39
:1004800001220029FAD1C3E8412F0029F6D1BFF398
:100490005F8F70479F1100200023034AC2E88F3FFF
:1004A00080F31088704700BF9F11002070B505468B
:1004B0000C461646FFF7DEFFE208A95C04F0070CC5
:1004C000012303FA0CF3194205D1DBB20B43AB5401
:1004D000FFF7E2FF70BD21463046FFF7B3FFF8B5E6
:1004E00006460D4614461F46FFF7C4FF00E00134E0
:1004F000BC420ED84FEAD40C16F80C1004F00703D7
:1005000001229A401142F2D1D2B20A4306F80C20DD
:1005100001E04FF0FF34FFF7BFFF002C01DB204666
:10052000F8BD002DFBD00698FFF78CFF054A107828
:10053000431CDBB21370172B02D9134610221A701A
:10054000704700BFC00D002000B583B00146054BC9
:1005500000931F2318220448FFF7C1FF03B05DF882
:1005600004FB00BF40630010B01500204FF0E022F4
:10057000936843F00053936070470000002305E048
:10058000044A1A440021C2E88F1F01331F2BF7D9F8
:10059000704700BF94110020064B9B68103043F851
:1005A0002010BFF35F8F00230349C1E88F3F82F320
:1005B0001088704700ED00E09D1100200048704752
:1005C00000E400E008B5FFF7F9FF002304E04FF076
:1005D000803240F8042B01330C2BF8D962B608BDE9
:1005E00008B50388DA0A1C2A06D15B050BD45B1513
:1005F000023300EB430008BD064B074A4FF48E71EF
:10060000064802F041FC03F5FF1303F5FF531F33C7
:10061000EDE700BF5C630010E06B00107463001036
:1006200008B5091A01F2FC7240F6FE739A4208D826
:10063000081F11F0010F04D1C0F34A0040F46040DC
:1006400008BD034B034A4FF48771034802F01CFCBA
:10065000BC630010D46B0010746300104209064B99
:1006600053F8222000F01F00012383401A4214BFD8
:1006700001200020704700BF00E100E03AB1064BC6
:1006800000F1600243F8221043F820107047203038
:10069000014B43F82010704700E100E008B50A461E
:1006A00000F01F03012199404009FFF7E7FF08BD53
:1006B00000F01F024009012393404030014A42F8F4
:1006C0002030704700E100E0024B9B68103053F887
:1006D0002000704700ED00E008B5FFF7F5FF034B81
:1006E000C01A2F288CBF0020012008BDC40D002097
:1006F00070B505460C46EFF3108672B60F4BD3E883
:10070000CF1F01220029FAD1C3E8412F0029F6D1D9
:10071000BFF35F8FFFF7D8FF094B984201D0A0428B
:1007200005D1324621462846FFF736FF70BD054BFE
:10073000054AED21054802F0A7FB00BF9D110020EE
:1007400011010010EC630010086C001074630010BD
:100750002DE9F04F87B000911546EFF3108A72B67D
:100760007C4BD3E8CF1F01220029FAD1C3E8412FE7
:100770000029F6D1BFF35F8F774B93F90040002C2F
:1007800044DB804604EB4407744B03EB870797F97F
:100790000610714A1170724A926800F1100152F805
:1007A0002190A9EB03022F2A3ED96E4B994534D1F3
:1007B0004FF42143ADF80C304FEA440904EB4400F8
:1007C000664E06EB800068490230FFF729FFADF85E
:1007D0000E004BF60153ADF81030FF238DF81230A8
:1007E0008DF81350009B0593A14406EB890306AADC
:1007F00012E9070083E8070047F00109524649461D
:100800004046FFF7C9FE07B0BDE8F08F574B584A86
:100810004FF4BE71574802F037FB574B544A40F231
:100820008311544802F030FB29F0010BABEB0303BA
:10083000524AA2FB0312D20802EB4202B3EB820F30
:100840000FD15B460026DA79AA4212D993F9062025
:10085000002A0DDB02EB42021E46404B03EB8203F3
:10086000F1E7474B424A4FF4CA71424802F00CFB91
:100870001E46A6B344F60103ADF80C304FF48F4387
:10088000ADF80E3096F906B0BBF1000F1ADA4BF650
:100890000150ADF810008DF812B08DF81350009B88
:1008A00005933946301DFFF7BBFEB080B47104EBF1
:1008B00044042A4B03EB840306AA12E9070083E8E9
:1008C00007009BE7301DFFF78BFE014604EB440257
:1008D000224B03EB8203181DFFF7A2FED9E74FF46A
:1008E0002143ADF80C306300019304EB4406DFF8BC
:1008F0006C9009EB86061C49B01CFFF791FEADF821
:100900000E005946301DFFF78BFEADF810004AF679
:10091000AA235A464946521A524153431B0D8DF899
:1009200012308DF81350009A0592019B234409EB75
:10093000830906AB13E9070089E8070044F60103C1
:10094000ABF800304FF48F43ABF8023047F00109A9
:1009500054E700BF9D110020841A0020C40D002020
:1009600000ED00E011010010F40D002024640010DF
:10097000F06B0010746300104C640010ABAAAAAABC
:100980007464001038B540F00104324BE31A2F2B89
:1009900031D8EFF30581C9B2002933D0EFF3108EBF
:1009A00072B62D4BD3E8CF5F0122002DFAD1C3E8F8
:1009B000452F002DF6D1BFF35F8F4AF6AA230246DA
:1009C000244D521B524153431B0D4FFA83FC234BC2
:1009D0009B6853F82130A3421BD00023032B32D84D
:1009E00003EB43011B4A02EB810292F906206245A8
:1009F00020D00133F2E71A4B1A4A40F27F211A48FD
:100A000002F042FA194B174A40F28221164802F0CE
:100A10003BFA124B9B68164A43F82120154B1A7873
:100A2000827183F800C000230B4AC2E88F3F8EF327
:100A3000108838BD074A02EB8101FF248C714BF608
:100A400001538B80EAE70C4B064A40F2932106489B
:100A500002F01AFAC40D00209D11002000ED00E004
:100A6000F8640010B86B001074630010206500106B
:100A700011010010841A00202C65001000B583B00D
:100A80000146074B0093052300220648FFF727FD88
:100A9000002801DBC0F1330003B05DF804FB00BFA8
:100AA00034650010881A0020014B0B440360704726
:100AB0009411002010B50446FFF738FD014620468A
:100AC000FFF7F2FFFF232371BFF35F8F10BD10B557
:100AD0000446FFF72BFD01462046FFF7E5FFFF2305
:100AE000237100236371BFF35F8F10BD10B50D4CF0
:100AF00009E00D4B0D4A1A210D4802F0C5F92046B8
:100B0000FFF7D8FF08340B4B9C4209D22368002B17
:100B1000F5D0012BEDD12046FFF7D9FF0834F2E7DD
:100B200010BD00BF5C0E002050650010486C001026
:100B300070650010640E0020024B0B440360BFF38D
:100B40005F8F70479411002010B504460120FFF715
:100B5000FBFC01462046FFF7EFFF10BD0246EFF316
:100B60000583DBB2103B990804D0034803F003036C
:100B7000136070470148F9E700800B4000000B400C
:100B800010B4846AA2EB040C0B1D50F823301B1B1D
:100B90009C4504D3046A01238B401C4202D10431DA
:100BA00040F821205DF8044B704741EA004070474F
:100BB0000D4B1A68EFF3108172B6D2E8CFCF012047
:100BC000BCF1000FF9D1C2E84C0FBCF1000FF4D119
:100BD000BFF35F8F1A680023C2E88F3F81F310884C
:100BE00040BF002000217047641A00202DE9F04F1B
:100BF00085B003A8FFF7B2FFA94B984214BF0023AA
:100C00000123039901EB8303A64A52F8234023787A
:100C1000994206D1054601228A4000F541535A60A7
:100C200014E1A14BA14A9221A14802F02DF9D4F878
:100C3000149006EB46074FEAC70A09EBC707D7F837
:100C400008B0D7F80C80284600F0B8FBB0EB0B00DA
:100C500061EB0803002BC0F20281B8F1000F60DBEA
:100C60003B691A460093934B9A4230D0798889B2F7
:100C7000B4F90800FFF799FF7969009B9847009045
:100C800001910099019A51EA02034AD01346002AC1
:100C900029DABBEB010268EB0308BA60C7F80C80E5
:100CA00039F90A30002BC0F2DA80D4F814E003EBF3
:100CB00043010EEBC1018868C968101A68EB010195
:100CC0000029C0F2CC80A4462CF8083F15E07A69D0
:100CD000136900921046984718B3009A136800935E
:100CE00053680193CDE7284600F068FB009B1A1873
:100CF000019B43EB0108D0E79C46BCF90070002F34
:100D00000ADB07EB47030EEBC3039868D968101A98
:100D100068EB01010029EFDA29F80A70ACF80060ED
:100D20009DE039F90A3023812369EFF3108272B60E
:100D3000D3E8CF0F01210028FAD1C3E8401F0028D3
:100D4000F6D1BFF35F8FB4F9023029F80A3066801C
:100D500021690023C1E88F3F82F310887FE0236977
:100D6000EFF3108272B6D3E8CF0F01210028FAD139
:100D7000C3E8401F0028F6D1BFF35F8FB4F80480AA
:100D80000FFA88F84FF6FF73A38021690023C1E8AA
:100D90008F3F82F3108815E01E46B6F90020002A26
:100DA0000ADB02EB42030CEBC3039868D968381ADC
:100DB0006EEB01010029EFDAA6F800803CF909800A
:100DC0002CF80920B8F1000F4EDBD4F814C008EB62
:100DD00048034FEAC3090CEBC3039F68D3F80CE048
:100DE00004F10806D9E70023A37104F1080CB4F953
:100DF000083010E04FF0FF384FF0FF39C0E90289AA
:100E0000B4F90800984205D0ACF80020B4F9080005
:100E1000C85323811346B3F1FF3F28D0616903EB28
:100E20004302D70001EBC20031F93220468816F4A4
:100E3000004FDFD18446EDE7284600F0BFFA3F1AA5
:100E400066EB0106012F76F1000635DA039A0123DD
:100E50009340EB63B4F90860002EBFF6E8AEA388B8
:100E600013F4004F3FF47BAFA379002BBBD1B4F94F
:100E70000830002B20DB626903EB430302EBC30362
:100E80009F68DE68B6F1FF3F08BFB7F1FF3FD3D0E0
:100E90003A46334603992846FFF772FECCE700BF77
:100EA00000800B403C1A002004660010746C001097
:100EB00030660010ED0B001040BF05B0BDE8F08FAC
:100EC000F8B504460D4611460A4B984210D000264C
:100ED0002E44012707FA05F525623046FFF708FC86
:100EE00039463046FFF7DAFB04F501542560F8BDBA
:100EF0000426EDE700800B40F8B504460E46174681
:100F00001D46C160FFF712FB164B03442361277097
:100F1000ABB263814FF05042127862704FF6FF72AD
:100F20002281A280013B63804FF0000C08E00CF1AD
:100F3000FF300CEB4C0E636923F83E000CF1010C02
:100F4000AC45F4D3084B9E4214BF0023012307EBAA
:100F50008303064A42F82340054A39463046FFF7E4
:100F6000AFFFF8BD9411002000800B403C1A002018
:100F7000ED0B001008B5054B1B690BB1034808BD0C
:100F8000034B044A6521044801F07EFF0C0E00204B
:100F9000706600105C6C001030660010F8B50446F6
:100FA0009E460069EFF3108172B6D0E8CF6F01253D
:100FB000002EFAD1C0E8465F002EF6D1BFF35F8F56
:100FC000B4F90250666905EB4500C70006EBC000A6
:100FD000002D03DB36F907C0A4F802C04FF0000C67
:100FE0002369C3E88FCF81F31088654533DB069909
:100FF0000161079941618260C0F80CE0418889B2C3
:101000000131C1F30E0101B9012141802846FFF7EA
:10101000CCFD2369EFF3108272B6D3E8CFCF012164
:10102000BCF1000FF9D1C3E84C1FBCF1000FF4D1A3
:10103000BFF35F8FA388F353A58021690023C1E824
:101040008F3F82F31088E368217801228A4003F5FC
:1010500001535A60F8BD4FF0FF30FBE770B582B026
:10106000064615461C469DF8203033B900F0BCF901
:10107000854264EB010100290ADB079B0193069B73
:1010800000932A4623463046FFF788FF02B070BD22
:101090000020FBE7F0B585B005460C4616461F4616
:1010A000FFF768FF9DF828300293019700962A46C3
:1010B0002346FFF7D3FF05B0F0BD03464089B0EBF0
:1010C000214F31DD10B50A14586902EB420200EBE2
:1010D000C2001A69EFF3108C72B6D2E8CF4F5FF0FE
:1010E000010E002CF9D1C2E844EF002CF5D1BFF37A
:1010F0005F8F428892B289B28A420FD0002019696C
:101100000022C1E88F2F8CF3108830B1DA681B7889
:101110000121994002F50153596010BD42F400428B
:10112000428001209871EAE70020704710B504461C
:10113000FFF720FF2146FFF7C0FF10BD4078704742
:10114000F0B583B0EFF30583DBB2CBB905460F46AC
:10115000861F41F1FF34B04271EB040301D2002637
:10116000344600F041F9301A64EB0103012873F1B1
:10117000000308DA2846394600F03EF903B0F0BD16
:101180001C48FFF75FF9002300931B4A30462146B5
:10119000FFF780FF00281EDAECE7002300E00023C1
:1011A000002BE7D1154B1A68EFF3108172B6D2E825
:1011B000CFCF0120BCF1000FF9D1C2E84C0FBCF138
:1011C000000FF4D1BFF35F8F1A680023C2E88F3F8E
:1011D00081F3108820BF0A4B5B6A9C42DFD8084924
:1011E000896AB14203D29C42D7D00123D8E70123B8
:1011F000D6E700BF94660010B10B0010641A0020FF
:1012000000000B4038B504460D4600F0EDF82018FC
:1012100045EB0101002902DBFFF792FF38BD4FF0DB
:10122000FF306FF00041F7E708B5C30E4101091A1E
:1012300063F100039B0043EA91738900091843F1AD
:101240000003DB00C80043EA5171FFF7DBFF08BD74
:10125000F0B583B005460C46EFF30583DBB293B1DE
:101260003C4B5B6A8B4209D33A4A926A824208D26B
:101270008B4201D0012002E0002000E0002003B0FA
:10128000F0BD0120FBE7FFF775FEC768067838461A
:1012900000F094F82A1A64EB0101043657F826305E
:1012A0001B1A9A4271F1000112DB20BF294B5B6AC5
:1012B0009C4209D8274A926AAA4207D29C4201D08E
:1012C0000120DCE70020DAE70020D8E70120D6E79C
:1012D00000230093204A28462146FFF7DBFE002822
:1012E0000BDD1C4B5B6A9C421BD81A4A926AAA42CD
:1012F00028D29C4213D0012314E0164B5B6A9C4217
:1013000009D8144A926AAA4207D29C4201D001200D
:10131000B5E70020B3E70020B1E70120AFE70023E5
:1013200000E0002303B920BFFFF700FF094B5B6A11
:101330009C420BD8074A926AAA4209D29C4203D027
:1013400001209CE70123EDE7002098E7002096E7C5
:10135000012094E700000B40B10B001000487047DB
:1013600000000B4010B50A4B1B6923B10A21094844
:10137000FFF79AFB10BDFFF7F1FF0446032100F0D1
:101380000BF81023032221460148FFF7B5FDEDE7D6
:101390000C0E0020641A002010B5054A054C064BBF
:1013A000A04214BF1846581CFFF780F810BD00BFBC
:1013B000E466001000800B40B41500200246436A2A
:1013C000906A1946536A9942FAD17047416A00E01F
:1013D000416A9942FCD300E0416A994202D1816A94
:1013E0009142F9D37047000008B50248FFF7E6FFC5
:1013F00008BD00BF00000B4008B502460B4602487E
:10140000FFF7E4FF08BD00BF00000B4070B51646B3
:10141000049D00EB400C4FEA8C0C0CF1804C0CF559
:10142000803CDCF80420AA4201D2CCF80450A0F1A0
:10143000040E5FFA8EFEBEF1010F28D90CF5405262
:101440004FF4006414601E4A52F8202042B11C4C34
:101450006469B4FBF2F4013404EB4404033CFDD2B0
:10146000DCF8002082EA461202F0E0020CF580541B
:101470002260BEF1010F16D90CF500524FF4006145
:101480001160CCF804500E4A42F8203070BD01299A
:10149000D4D10CF5405203241460DCF8082012F07B
:1014A000010FFAD0DCE7DCF800204A4002F003022A
:1014B0002260DCF8084001228A401442F9D0DBE7C0
:1014C000B815002010B582B04FF480340094FFF7B7
:1014D0009DFF02B010BD0000014B53F82000704783
:1014E000B815002070B5049C344DB5FBF1FC344DAB
:1014F0001544344EB54237D8B2FBFCF5A5F1100EB9
:10150000BEF5987F36D803F1FF3EBEF1060F37D8FF
:1015100004F1FF3EBEF1060F32D8BCEB121F35D8E6
:10152000240344EA03440368002B35DB264B98422E
:1015300042D00E2301229A40244B1A6003F58053B7
:101540001A60234B9B6832EA0303FAD1016085607D
:1015500000F540520432212313600368002BFCDAAB
:10156000C4600823136070BD1A4B1B4A11211B482D
:1015700001F08AFC1A4B184A1921184801F084FC22
:10158000184B154A1C21154801F07EFC164B124AD7
:101590002321124801F078FC036803F03F038B42DB
:1015A000C4D18368C3F30B03AB42BFD1C36803F458
:1015B000EE23A342BAD1D6E70F23BBE7001BB70047
:1015C00080E84BD380F8A93200800540002002401B
:1015D00000000240086700108C6C00105867001073
:1015E000A0670010BC67001008680010024B1A6862
:1015F000024B5A60704700BF141A002000800D4053
:1016000008B5164B4FF080421A60A3F54123144AE7
:101610009A6051B103F540234FF0E0621A6048B977
:10162000104B4FF000421A6008BD0C4B4FF0E062C7
:101630001A60F4E74FF47A7303FB00F00A4B18606A
:10164000B0F1807F02D36FF07F421A60FFF7CEFFC8
:10165000044B4FF080421A60E6E700BF00B00D4037
:10166000F3FFFF0100A00D40141A002010B50C4B31
:101670004FF080441C6070B140F0010309480A4CEF
:10168000C4610A4C5C4004624162836200211046DE
:10169000FFF7B6FF10BD034B0021D961F6E700BF8D
:1016A00000B00D4000800D40D3C007B02D3FF84F73
:1016B000054A00EB400302EB8303596000EB400056
:1016C0008000012313507047008010402DE9F04145
:1016D00005460E46174698460023DB8A002242E85C
:1016E00000F212F4800F0BD1102144F252209847DF
:1016F000044643463A4631462846A047BDE8F081B5
:10170000042144F2522098470446F2E708B500232A
:10171000DB8A002242E800F212F4800F02D110218D
:10172000984708BD04219847FBE708B5031E06DB70
:1017300041F0200012B141F0300100E001460A46BC
:101740000A214FF48170FFF7C1FF0000034BD3F86B
:101750002838002BFAD0BFF35F8F704700000E408F
:10176000002207E0054B13449B00BFF35F8F00216D
:1017700019600132072AF5D9704700BF03820310B0
:1017800008B5FFF7EDFF08BD074B4FF42A621A605A
:101790004FF48D72DA6003F50053044A1A60024B6D
:1017A0005B68002BFBDA70470080044000B0FA0051
:1017B00010B5044602E054F8043B9847014B9C42A4
:1017C000F9D310BDF06200107047000008B5024860
:1017D000FFF7EEFF08BD00BFB0620010064B074ADE
:1017E0001A6003F58053064A1A60064B9A68044B48
:1017F0009343FAD1704700BF002002407F3BEFEFD8
:10180000F6FFF30300000240054BDB6CB3F5004F1D
:1018100000D07047034B4FF48022DA64F9E700BF31
:1018200000001150002011504FF0E022D2F8881D26
:10183000034B0B43C2F8883D10EE3004704700BFE5
:1018400003033000054B6FF060421A60044B9B6845
:10185000DB4333F06043F9D1704700BF00300240F2
:101860000000024008B545F25320FFF74FFF034642
:101870000420984708BD08B545F25320FFF746FFFE
:1018800003460120984708BD08B5FEF777FE08BD5E
:1018900010B50C490C4A521A92101446442A28BF1B
:1018A00044229200094804F031FC04E0084A074B46
:1018B00043F824200134432CF8D9044A054B9A609C
:1018C00010BD00BF0000001010010010000000203B
:1018D0001101001000ED00E038B50420FFF7FCFD19
:1018E000064BA3FB0035AD0C002404E02946E0B212
:1018F000FFF7DEFE0134052CF8DD38BD83DE1B4327
:1019000030B583B0264B0022C3F88420FFF73CFF9C
:10191000244B0122DA63224B5B6C012BFBD1214B60
:1019200003221A631E4B9B6B012BFBD102240094F4
:1019300005231D4A01211D48FFF7D4FD052500950B
:101940002B461B4A01211B48FFF7CCFD1A4B0022F6
:1019500021460420FFF7B6FD184C23460022012142
:101960002846FFF7AFFD164D2B46002211460820F2
:10197000FFF7A8FD2B46002211460920FFF7A2FD24
:101980002346002211460620FFF79CFD2346002235
:1019900011460720FFF796FDFFF79EFF03B030BD0D
:1019A0000000014000300140002F68590000054050
:1019B000008C864700800540001BB70080D1F008EE
:1019C000006CDC0286B003B451FC0804CDE90201CE
:1019D00051FC0904CDE9040151EC0A04CDE90601EA
:1019E00003BCF047BDE800504EEC00C4BDE8005019
:1019F0004EEC01C4BDE800504EEC02C400BD000036
:101A000000B5FFF7DFFF02E010FE30F4F8D441EC40
:101A1000100443EC112400EE010410EE010480EEEA
:101A2000200451EC1004704700B5FFF7CBFF02E033
:101A300010FE30F4F8D441EC100443EC112400EE15
:101A4000010410EE210480EE200451EC30047047B4
:101A500000B5FFF7B7FF02E010FE30F4F8D410B580
:101A600041EC100443EC112451EC040453EC052424
:101A7000A0FB024C5FF0000EE0FB03CEE1FB02CEC8
:101A80004CEC20440024E1FB03E444EC30E480EE21
:101A9000200451EC5004BDE81040704700B5FFF73A
:101AA00091FF02E010FE30F4F8D441EC100443EC56
:101AB000112451EC2104A0FB01126FEA820252FBB7
:101AC000100052FB12F252FB1000A0EBD07C53EC42
:101AD00004245CFB13F153EC1524A1FB022001FB51
:101AE000030053EC4424A2EB000050FB1CF24FEA2D
:101AF000111312EB017043EBE27140EA515020EAFE
:101B0000915020F0070053EC7524A0FB023C53ECED
:101B1000752400FB03CC01FB02CC53EC0424ACEB9A
:101B2000824C40EA5C70A0F1010041EC400480EE80
:101B3000200451EC7004704700B5FFF743FF02E04A
:101B400010FE30F4F8D440EC700400EE010410EE06
:101B5000210480EE200451EC3004704700B5FFF7FB
:101B600031FF02E010FE30F4F8D440EC600400EEE7
:101B7000010410EE210480EE200451EC3004704783
:101B800000B5FFF71FFF02E010FE30F4F8D441EC7F
:101B9000800400EE010410EE010480EE400410EE1B
:101BA0001304704700B5FFF70DFF02E010FE30F49C
:101BB000F8D441EC800400EE010410EE010480EE44
:101BC000400410EE3304704700B5FFF7FBFE02E05F
:101BD00010FE30F4F8D441EC100443EC112400EE74
:101BE000010410EE3004C0F30070704700B5FFF739
:101BF000E9FE02E010FE30F4F8D443EC102441EC8E
:101C0000110400EE010410EE30F48CBF012000201E
:101C1000704700BF00B5FFF7D5FE02E010FE30F4BC
:101C2000F8D443EC102441EC110400EE010410EE52
:101C300030F42CBF01200020704700BF00B5FFF733
:101C4000C1FE02E010FE30F4F8D441EC100443EC85
:101C5000112400EE010410EE30F42CBF012000200E
:101C6000704700BF00B5FFF7ADFE02E010FE30F494
:101C7000F8D441EC100443EC112400EE010410EE02
:101C800030F48CBF01200020704700BF704720B1A6
:101C900008B50A684968904708BD704701460020AA
:101CA00008E000EB8000531C0B60137803EB40034B
:101CB000A3F130000A681378303BDBB2092BF0D96E
:101CC00070472DE9F04F83B005460E4693461F46F8
:101CD000DDF830A00D9CDDF838900F9B13F0030F5A
:101CE00019D1A0460192C84509D202F1010B3B4629
:101CF00031462020A84708F101085A46F3E7DDF8ED
:101D000004B008E0013C02F101083B4631461AF8F4
:101D10000400A8474246002CF4D10F9B13F0020F99
:101D200003D1104603B0BDE8F08FA2EB0B034B4587
:101D3000F7D2541C3B4631462020A8472246F4E700
:101D40002DE9F04385B099460C9D0D9C9DF8388097
:101D5000DDF840E0119F129E16F0020F21D17FB1F5
:101D600016F0010F0CD0B8F1000F02D116F00C0FD5
:101D700006D0013F04E04FF0300C05F804C00134F8
:101D8000744501D21F2CF6D916F0010F09D0BC42C0
:101D900007D21F2C05D84FF0300C05F804C00134D1
:101DA000F2E716F0100F14D016F4806F04D11CB1B6
:101DB000744522D0BC4220D00F9B102B36D00F9BF5
:101DC000022B3ED01F2C0ED84FF0300C05F804C06B
:101DD00001341F2C07D8B8F1000F3AD04FF02D0C6A
:101DE00005F804C0013403960297019400954B4610
:101DF000FFF767FF05B0BDE8F083B4F1010C13D025
:101E00000F9B102B0ED064460F9B102BD7D116F0D2
:101E1000200FD4D01F2CD2D84FF0580C05F804C096
:101E20000134CFE7023CC7E76446C5E716F0200F50
:101E3000EAD11F2CE8D84FF0780C05F804C0013423
:101E4000C0E71F2CCFD84FF0620C05F804C0013456
:101E5000B8E716F0040F05D04FF02B0C05F804C0BE
:101E60000134C0E716F0080FBDD04FF0200C05F884
:101E700004C00134B7E7F0B591B0169C189D1B9EC5
:101E80000CB926F0100616F4806E16D064B34FF02D
:101E9000000E12E00CF1300C5FFA8CFC0EF1010721
:101EA0000EF1400EEE440EF820CCB4FBF5FCAC4233
:101EB0001BD31F2F19D8BE466446B4FBF5FC05FBA7
:101EC0001C4C5FFA8CFCBCF1090FE3D916F0200F13
:101ED00008D04127BC445FFA8CFCACF10A0C5FFAD5
:101EE0008CFCDBE76127F5E7274606961A9C0594EC
:101EF000199C049403959DF85C400294019708ACEA
:101F00000094FFF71DFF11B0F0BD2DE9F04F95B023
:101F100009900A910B929846DDF878B0DDF87C9034
:101F2000229D239F269E5BEA090201D126F010061E
:101F300016F480641ED05BEA09022FD0002419E059
:101F40003032D3B204F1010A04F150020DEB020465
:101F500004F8203C2A463B465846494604F090F98E
:101F6000AB4579EB07091BD3BAF11F0F18D85446BC
:101F7000834689462A463B465846494604F080F93E
:101F8000D2B2092ADCD916F0200F05D04123134420
:101F9000DBB20A3BDBB2D5E76123F8E74FF0000A7A
:101FA0000696259B0593249B049303959DF880300A
:101FB0000293CDF804A00CAB009343460B9A0A9908
:101FC0000998FFF7BDFE15B0BDE8F08F00000000D6
:101FD0002DE9F04F91B004460D4617461E46DDE947
:101FE0001A2310461946FFF7F3FD002840F0ED8054
:101FF0004FF0FF32AE4BDDE91A01FFF737FE002844
:1020000040F0E3804FF0FF326FF48013DDE91A01F6
:10201000FFF7F0FD002840F0D88000220023DDE922
:102020001A01FFF7E7FD002840F0E2809DED1A7BE2
:102030008DED067B1E9B13F480630D9301D1062367
:102040001C93DDE9062310461946CDE9080152EA42
:10205000030100F0D880C3F30A50C3F31303904682
:1020600043F07F5949F44019A0F2FF30FFF768FDB3
:102070007DA3D3E90023FFF7EFFC7DA3D3E9002381
:10208000FFF7C2FC82468B4600228A4B40464946F7
:10209000FFF7CEFC78A3D3E90023FFF7DDFC02466F
:1020A0000B4650465946FFF7AFFCFFF76DFD8246E1
:1020B000FFF746FD8046894671A3D3E90023FFF769
:1020C000CBFC00227C4BFFF79FFCFFF75DFD8346B6
:1020D0006DA3D3E9002340464946FFF7BDFC804687
:1020E00089465846FFF72CFD69A3D3E90023FFF783
:1020F000B3FC02460B4640464946FFF799FC804632
:10210000894602460B46FFF7A7FCCDE90A010BF210
:10211000FF3B00210022CDE908124FEA0B5309933F
:102120000023089342464B4640464946FFF76CFC65
:10213000CDE90E0142464B4600204FF08041FFF7AB
:1021400077FC8046894600225C4BDDE90A01FFF7F7
:10215000A9FC00225A4BFFF757FC02460B46DDE96B
:102160000A01FFF79FFC0022564BFFF74DFC024689
:102170000B46DDE90A01FFF795FC02460B46404697
:102180004946FFF741FC02460B46DDE90E01FFF729
:1021900089FC00224C4BFFF737FCDDE90823FFF7F1
:1021A0005BFC80468946CDE90889DDE90623FFF717
:1021B0005DFD50B30AF1FF3A0022414B40464946CB
:1021C000FFF770FCCDE908011FE01E9B04931D9BE7
:1021D00003931C9B02939DED1A7B8DED007B334690
:1021E0003A462946204600F003F911B0BDE8F08FC9
:1021F0009FED297B8DED067B1A9B06931B9B03F1BC
:102200000043079316E74FF0000A0AF16303C62B59
:1022100027D84FF004081E9B13F4006F5FD0DDE950
:10222000081213460B4313D01DA3D3E90023DDE9A5
:102230000601FFF707FD002800F0B4801AA3D3E9D8
:102240000023DDE90601FFF7D5FC002800F0AA8095
:102250001C9B53453ADDA3EB0A0A0AF1FF331C939A
:1022600036E04FF00508D6E7FB799F501344D33F83
:10227000B3C8608B288AC63F61436F63A787D23F8C
:1022800071A379094F930A401655B5BBB16B024053
:10229000EF39FAFE422EE63F000000000000000089
:1022A0002D431CEBE2361A3F0000000080842E41D3
:1022B000FFFFEF7F0000F83F0000E03F00002C40F0
:1022C00000002440000018400000F03F00231C9351
:1022D0001E9B43F480631E934FF00008C2461D9B73
:1022E000984569D2A3EB08091E9B13F0020B04D09A
:1022F000B8F1000F01D04FF00009BAF1000F07D07C
:10230000DDE90823DDE90601FFF7CCFBCDE9060195
:1023100000220023DDE91A01FFF76CFC00284ED1F2
:102320001E9B23F400630493CDF80C901C9B029336
:102330009DED067B8DED007B33463A4629462046CF
:1023400000F056F8B8F1000F3FF44FAF1E9B13F0AA
:10235000200F3CD04FF0450C00F1010933460246F6
:1023600029466046A0478AEAEA72A2EBEA72052390
:10237000059308F1FF330493002303930A23029388
:102380004FEADA730193009233464A4629462046C3
:10239000FFF771FDBBF1000F3FF427AF0246DDF8F8
:1023A00074901EE01C9B002B99D00D9B002B96D0A7
:1023B0001C9B013B1C9392E74FF0000994E7DDE979
:1023C0000601024601F10043CDE90623A8E74FF0DC
:1023D000650CC1E702F10108334629462020A047D9
:1023E0004246D31B4B45F5D31046FEE600000000E5
:1023F0002DE9F04F2DED028B95B007900A91924692
:102400009B46DDE92089229D42464B46404649468F
:10241000FFF7DEFB002835D14FF0FF326FF4801359
:1024200040464946FFF7E6FB00283AD14FF0FF321D
:102430009F4B40464946FFF719FC002840D198A31E
:10244000D3E9002340464946FFF710FC00284FD14E
:1024500095A3D3E9002340464946FFF7CBFB00286C
:1024600046D10022002340464946FFF7C3FB00281F
:102470004CD100230B93249B13F4806F00F0B780A2
:10248000002456E0249B0393239B02930323019390
:10249000884B00935B4652460A990798FFF711FC58
:1024A00037E1249B0393239B029304230193824BE4
:1024B00000935B4652460A990798FFF702FC28E111
:1024C000249B13F004030FD07C4A7BB1042324998E
:1024D000039123990291019300925B4652460A9917
:1024E0000798FFF7EEFB14E1754AEEE70323EEE7EA
:1024F000249B0493239B03930295CDE900895B46BB
:1025000052460A990798FFF763FD02E142464B469F
:1025100000200021FFF78CFA8046894601230B93A7
:10252000A9E704F150036B44302203F8202C013D4D
:1025300001341F2C01D8092DF3D840464946FFF736
:1025400023FB0646FFF7FCFA02460B464046494687
:10255000FFF76EFA5B4B03EBC50393ED008B53EC77
:10256000182BFFF779FA02460B46CDE90823FFF74F
:102570001DFB0746FFF7F6FA02460B46DDE90801A8
:10258000FFF756FA02460B46CDE9082300224E4BD0
:10259000FFF76CFB68B301373846FFF7E3FA0246F2
:1025A0000B4651EC180BFFF739FB08B10136002739
:1025B0006DBB3046FFF7C4FA02460B46404649461B
:1025C000FFF736FA0746884600223F4BFFF712FB1B
:1025D00000284CD100223C4B38464146FFF746FBD1
:1025E000002844D116F0010F41D001363FE0062506
:1025F00046E70022344BDDE90801FFF7FBFA00282B
:10260000D6D117B117F0010FD2D00137D0E71F2C68
:1026100017D8013D2D4BA3FB0723DB08194603EB1D
:102620008303A7EB4303621C303304F150000DEB2E
:10263000000404F8203C092F02D90F461446E6E7AF
:1026400014461F2C0AD86B1E45B104F150026A448F
:10265000302102F8201C1D460134F2E71F2C06D859
:1026600004F150036B442E2203F8202C01341F2C5C
:1026700031D8174A82FB0632F317C3EBA2031A467E
:1026800003EB8303A6EB4303611C303304F15000DA
:102690000DEB000404F8203C1646DAB10C46E6E7E0
:1026A0000000000065CDCD410000000065CDCDC12A
:1026B000FFFFEF7F806800108468001074680010CE
:1026C0007C680010F06C00100000E03FCDCCCCCC5A
:1026D000676666660C46249B03F00303012B1DD03E
:1026E0001F2C09D80B9B002B35D004F150036B44F1
:1026F0002D2203F8202C0134249B0393239B029367
:1027000001940CAB00935B4652460A990798FFF779
:10271000D8FA15B0BDEC028BBDE8F08F239BB3B1A6
:102720000B9B1BB9249B13F00C0F12D0239B013B76
:102730002393194606E004F150036B44302203F85A
:10274000202C01348C42CBD21F2CF4D9C8E723991A
:10275000F8E72399F6E7249B13F0040F07D004F160
:1027600050036B442B2203F8202C0134C4E7249B34
:1027700013F0080FC0D004F150036B44202203F87B
:10278000202C0134B8E700BF2DE9F04F91B080460E
:1027900017460F938946002900F04B8300260F9BB4
:1027A0001878002800F04883252809D0741C3B467F
:1027B00032464946C0470F9B01330F932646EEE74A
:1027C00001330F9300251FE045F0010501320F9200
:1027D000012318E045F0020501320F92012312E0B7
:1027E00045F0040501320F9201230CE045F0080585
:1027F00001320F92012306E045F0100501320F92DD
:10280000012300E000234BB30F9A1378203B102BD9
:10281000F8D801A151F823F0ED2700100528001089
:1028200005280010F92700100528001005280010C1
:1028300005280010052800100528001005280010A4
:1028400005280010E127001005280010D5270010EA
:102850000528001005280010C92700100B930F9BB6
:102860001A78A2F13003DBB2092B18D92A2A1BD01F
:10287000DDF82CB00F9B1A782E2A25D00F9A1378EA
:10288000683B122B5CD8DFE803F0495BAC5B3B5B39
:102890005B5B5B5B5B5B575B5B5B5B5BB1000FA890
:1028A000FFF7FCF98346E5E71A9B1A1D1A921B688D
:1028B000002B04DB9B460F9B01330F93DAE745F0B7
:1028C0000205C3F1000BF6E745F480655A1C0F9230
:1028D0005A78A2F13003DBB2092B0CD92A2ACDD1C8
:1028E0001A9B1A1D1A921C6824EAE4730B930F9B1F
:1028F00001330F93C2E70FA8FFF7D0F90B90BDE7A4
:1029000045F48071531C0F9353786C2B01D00D4606
:1029100016E045F4407502320F9211E045F0800157
:10292000531C0F935378682B01D00D4608E045F0F7
:10293000C00502320F9203E045F4807501320F9218
:102940000F9B1878672856D82528C0F06882A0F118
:102950002503422B00F26382DFE813F05602610286
:10296000610261026102610261026102610261024F
:10297000610261026102610261026102610261023F
:10298000610261026102610261026102610261022F
:1029900061026102610261026102610288016801F3
:1029A00088016102610261026102610261026102E9
:1029B00061026102610261026102610261026102FF
:1029C00061027100610261026102610261026102E1
:1029D0006102610261027100AF017100880168014A
:1029E000880145F4007501320F92A9E745F480751E
:1029F00001320F92A4E7782800F211826928C0F012
:102A00000E82A0F16902D2B20123934049F2410241
:102A1000134214D113F0800F40F0DB8113F4806F68
:102A200000F0FD811A9B1A1D1A92D3F800A00B9B8F
:102A3000002B40F090814FF0FF32534671E16F2838
:102A40000CD005D858283CD0622803D1022306E0D8
:102A5000782838D025F010050A2300E008235828EC
:102A600033D0692803D0642801D025F00C0515F473
:102A7000806F01D025F00105692829D0642827D06E
:102A800015F4007F40F0948015F4807F40F0AC8016
:102A900015F0400F00F0BD801A9A111D1A9112789E
:102AA0000595CDF810B00B99039102930023019383
:102AB00000923B46324649464046FFF7DCF906465F
:102AC00027E01023CBE71023C9E745F02005C8E72E
:102AD00015F4007F21D115F4807F42D115F0400F0D
:102AE00058D01A9A111D1A91127882EAE271A1EB5C
:102AF000E2710595CDF810B00B9803900293D20FB8
:102B0000019200913B46324649464046FFF7B3F9F1
:102B100006460F9B01330F9341E61A9A073222F0C3
:102B2000070202F108011A9151681268084600294B
:102B300013DB0895CDF81CB00B9C0694049300237E
:102B40000593C90F0291009201903B4632464946D7
:102B50004046FFF7DAF90646DBE7524261EB4100F7
:102B6000E7E71A9A111D1A91126882EAE271A1EB45
:102B7000E2710595CDF810B00B9803900293D20F37
:102B8000019200913B46324649464046FFF773F9B1
:102B90000646BEE715F0800F05D01A9A111D1A914E
:102BA000B2F90020A1E71A9A111D1A9112689CE748
:102BB0001A9A073222F0070202F108011A910895C9
:102BC000CDF81CB00B990691002104930591029158
:102BD000D2E90023CDE900233B4632464946404630
:102BE000FFF793F9064694E71A9A111D1A91059575
:102BF000CDF810B00B990391029300230193136851
:102C000000933B46324649464046FFF734F90646B4
:102C10007FE715F0800F04D01A9A111D1A911288BF
:102C20003EE71A9A111D1A91126839E746281AD000
:102C30001A9B073323F0070303F108021A92049545
:102C4000CDF80CB00B9A0292D3E90023CDE9002312
:102C50003B46324649464046FFF7CAFB06460F9BB5
:102C600001330F939BE545F02005E1E7672801D08C
:102C7000472801D145F40065452801D0472801D1F6
:102C800045F020051A9B073323F0070303F10802E0
:102C90001A920495CDF80CB00B9A0292D3E9002356
:102CA000CDE900233B46324649464046FFF790F9BE
:102CB00006460F9B01330F9371E515F002051DD0F9
:102CC00001241A98031D1A9306F1010A3B46324665
:102CD00049460078C047A5B90F9B01330F9356466C
:102CE0005DE502F1010A3B4649462020C0472346E4
:102CF00052465C1C9B45F4D81646E2E70123324657
:102D0000F7E7524606E0561C3B4649462020C0479E
:102D10002C463246651CA345F5D89246DCE70133C4
:102D20000A46197811B1511E002AF8D1A3EB0A0303
:102D300015F480620C9203D00B9A934228BF13467D
:102D400015F0020409D00D94CDF838B00B9D324631
:102D50000C9E9B461FE00B9A6FE63246264606E025
:102D6000541C3B4649462020C0472B4622465D1C4A
:102D70009B45F5D834462B460D94CDF838B00B9DC5
:102D80000C9E9B4607E01D460AF1010A541C3B4677
:102D90004946C04722469AF8000020B1002EF3D0E1
:102DA0006B1E002DEFD10D9C16465B46DDF838B04A
:102DB00054B90F9B01330F93F1E4551C3B46494630
:102DC0002020C04723462A465C1C9B45F5D8164662
:102DD000EFE745F021051A9B1A1D1A921B6805950D
:102DE000082204920B9A039210220292002201926E
:102DF00000933B46324649464046FFF73CF80646BC
:102E00000F9B01330F93CAE4741C3B46324649467C
:102E10002520C0470F9B01330F932646BFE4741C47
:102E20003B4632464946C0470F9B01330F93264627
:102E3000B5E4DFF82080B1E4BE4208D37A1E3B46F9
:102E400049460020C047304611B0BDE8F08F3246F9
:102E5000F5E700BF8D1C001000B585B0029003910E
:102E6000009313464FF0FF3202A90348FFF78CFC92
:102E700005B05DF804FB00BF8F1C001000BEFDE72D
:102E800008B5FFF7FBFF000000B583B08C4619467C
:102E90005AB11446064B0194009363460246054816
:102EA00000F052F90120FFF7E9FF034B1C46F2E75F
:102EB0008C6800109C6800109868001010B5EFF343
:102EC0000583DBB203B100BEFEF780FC044C02E0D8
:102ED00054F8043B9847034B9C42F9D310BD00BF04
:102EE000F0620010F862001008B5034608461B683F
:102EF0001146984708BD0000F8B507460D4616462E
:102F0000437D13B1002420460CE003681146284697
:102F100098472EE03B7D10E03B680221154898471A
:102F2000601C0134B44214DA002CF3DD2B1913F8C1
:102F3000013C0D2B14BF002301232A5D0A2AF0D186
:102F4000002BEED1A042E7DA3B68211A28449847CB
:102F5000E2E7B04203DA3B68311A28449847002E72
:102F600007DD354415F8013C0D2B14BF0023012368
:102F70003B75F8BD406D001038B50368BBB1054620
:102F80000B4B1C6806E0294651F8042B2046FFF73E
:102F9000B3FF24694CB12368002BFAD0054B1B68A2
:102FA000002BF0D0A342F4D1EDE700232B6038BD15
:102FB000081600201016002038B505460C460B6890
:102FC000802B05D023685A1C22601C44257138BD13
:102FD0000846FFF7D1FFF5E708B5FEF705FA074AFF
:102FE000821841F10003002B03DB054803F058F978
:102FF00008BD4FF0FF326FF00043F6E740420F008C
:103000005C0E002008B5024803F03EF908BD00BF81
:103010005C0E00202DE9F04383B006460D46904635
:103020001C46FFF7D9FF8146B5F1FF3F04D044B1FC
:10303000174F184B1C6807E0304603F0DDF80546D3
:10304000F5E7154FF5E72469BCB12368002BFAD0EA
:10305000124B1B680BB1A342F5D12A4631462046DC
:10306000B847B8F1000FEED00A238DF807300122DF
:103070000DF107012046B847E5E7B9F1000F03D18C
:10308000284603B0BDE8F083FFF7BCFFF8E700BFB8
:10309000F92E001008160020E92E0010101600204E
:1030A000084A01E003F1100213683BB18342F9D1F1
:1030B00031B90369136000230361704701B11060E7
:1030C000704700BF0816002010B5054B1C6801E0D2
:1030D000984724691CB16368002BF9D1F9E710BD4A
:1030E0000816002008B500F0ABF908BD38B5054654
:1030F00003F082F8044601231A4601462846FFF7EA
:1031000089FFFFF7E1FF204638BD000070B5A2B08F
:1031100004460E46FFF760FF054600230193334641
:10312000224601A90748FFF797FE044601A8FFF7CA
:1031300023FFFFF7C9FF15B9204622B070BDFFF786
:1031400061FFF9E7B92F00100FB400B583B004A9EF
:1031500051F8040B0191FFF7D9FF03B05DF804EBC0
:1031600004B0704770470000014B00221A7070478E
:10317000851A00204B79FF2B0BD18B795BB9CB796A
:10318000012B0AD1082A0AD98A78064B1A7009201D
:1031900070470020704700207047002070470020D3
:1031A000704700BF851A002001207047012923D1F4
:1031B00008B59188114B1B78994201D0002008BDB9
:1031C0005378012B03D0022B0FD00020F7E7518852
:1031D00011F4807F06D0480AC1F3402201F07F013C
:1031E000FEF7A3FA4FF0FF30F6E76422002108460D
:1031F000FEF73CFA0120E2E701207047851A002023
:10320000004870470C6E001001290FD108B5944694
:103210005378012B0CD19388072B01D0002008E0B4
:10322000A623044A614601F0F5FB02E00120704745
:10323000002008BD646D0010012303700048704732
:10324000446D001008B50B68B3F5966F00D008BD4B
:10325000002211464FF0FF30FEF767FA024B18606C
:10326000024B1960704700BFA8150020AC15002064
:1032700008B5FEF7B9F80E4A821841F10003002B99
:1032800011DB0C4803F00CF860B100214FF0FF3067
:1032900001F048FA002001F045FD0028F5D105486D
:1032A00002F0F2FF08BD4FF0FF326FF00043E8E795
:1032B00040420F00681A002038B5184B1B681BB33A
:1032C000EFF3108272B6D3E8CF0F01210028FAD1B4
:1032D000C3E8401F0028F6D1BFF35F8F0F494A6053
:1032E00000230F4803700968C1E88F3F82F31088FC
:1032F000002400250B4B1878FDF7B0F940B90024E5
:1033000000252046294638BD4FF47A740025F1E7A0
:10331000044B1878FDF7CCF9F3E700BF341A00200E
:10332000871A0020861A002008B5024B1878FDF78E
:10333000BFF908BD861A002070B584B00646144651
:103340001D46FEF751F8221845EB0103002B0BDB5D
:103350009DF8281002910999019108990091304631
:10336000FDF77CFE04B070BD4FF0FF326FF00043FC
:10337000EEE7F0B585B005460C4616461F46FDF74C
:10338000F9FD9DF828300293019700962A462346BE
:10339000FFF7D2FF05B0F0BD10B582B00021224882
:1033A00002F082FF08BB214B1B68E3B1EFF31082F0
:1033B00072B6D3E8CF0F01210028FAD1C3E8401F2D
:1033C0000028F6D1BFF35F8F18494A601848037888
:1033D00083F001030124047008680021C0E88F1FF6
:1033E00082F31088BBB902B010BD00214FF0FF304E
:1033F00001F098F9002001F06FFC04460A4802F041
:1034000043FF002CEFD00B4B1B68002BEBD00A4A7C
:1034100010689847E7E700940B46084A4FF47A7023
:103420000021FFF7A6FFDEE7681A0020341A00200B
:10343000871A0020A8150020AC150020B932001012
:1034400010B582B04FF050431C68FDF793FDFDF7B7
:1034500075FEA0422DD1244B1B780021084602F0B6
:103460000BF9224B1B6853B30120FDF707FBC0B2D9
:103470001F4C20701F49FDF73BF901212078FDF713
:103480000DF90E20FDF728F90446E0B10120FDF703
:103490005BF801461848FDF74FFB002217490E2044
:1034A000FDF756F901211648FFF7FAFD204602B054
:1034B00010BD144B144AC6211448FFF7E5FC0B4815
:1034C000FDF7F8FAD0E70C4A00231360536001229D
:1034D00000920F4A4FF47A700021FFF74AFFC4436D
:1034E000E40F002CE2D0DDE778710010681A0020AC
:1034F000861A002099330010341A00202933001056
:10350000240E0020CC6800103C6E0010D46800101F
:10351000B932001008B5002001F0C4FB08BD00005E
:1035200038B504460D46FFF7F5FF90B3002001F0D3
:10353000D3FB88B3FDF758FF1A4A821841F1000304
:10354000002B16DB184802F0ABFE40B3FFF7E2FF9A
:1035500018B1002001F0C0FB80B900214FF0FF300E
:1035600001F0E0F86FF002040F4802F08DFE2046F3
:1035700038BD4FF0FF326FF00043E3E72A462146A3
:10358000002001F0B5FB04460028EDD16FF00204E5
:10359000EAE76FF00204EAE76FF00204E7E76FF092
:1035A0000204E4E740420F00681A0020F8B507461D
:1035B0000D46FDF719FF2E4A821841F10003002B3A
:1035C00004DB2C4802F06CFE28B9F8BD4FF0FF3246
:1035D0006FF00043F5E7FFF79DFF002845D1264B2C
:1035E00000200021C3E90001224802F04DFEECE773
:1035F00000214FF0FF3001F095F8002001F092FB20
:10360000FFF788FF0028EFD0002001F00FFCF8B191
:10361000AC42E9DA2E1B002001F008FC864200DCF7
:1036200030460028E4D002463919002001F0DCFBC6
:10363000064600214FF0FF3001F074F8002001F041
:1036400071FB3444FDF7D0FE0B4BC3E90001DFE70B
:10365000FDF7CAFE084A13685268084E9B1942F1EA
:10366000000283428A41D3D2BEE70024D0E700BFE4
:1036700040420F00681A0020E80F002020A1070038
:1036800000487047B86E001000487047646E001024
:1036900010B50446144B1B786BB18CB9134B40F238
:1036A00009425A80012301335B009BB20F4843F467
:1036B0004073038010BD11210B4800F047F8ECE780
:1036C000052C0ED80A4B53F824000023122BEAD8FD
:1036D000C25C002AE7D00133044921F81320DBB291
:1036E000F4E70020E6E700BF701A0020E015002094
:1036F0004C6E001000B58BB045F24730FEF706F86F
:1037000003460122092101A89847042801D100237A
:103710000EE00A4B0A4A2F210A48FFF7B5FBC3F116
:103720000F0228326A4412F8241C074AD15401338C
:10373000072BF4DD0BB05DF804FB00BF64690010DB
:10374000EC6E00106C6900105C1A002008B511B115
:103750008C4600220AE0114B114A3B211148FFF729
:1037600093FB00210FE03733835401320CF1FF3318
:1037700093420FD90F2A0DD853080B49CB5C12F096
:10378000010FEED104210B4103F00F03092BEADCFA
:103790003033E9E70023835408BD00BFBC69001043
:1037A000CC6E00106C6900105C1A002010B400F0A0
:1037B0007F044FEA440C0CEBD01C284B03EB4C135A
:1037C0009870C0090CBF4FF0010C4FF0000C83F84B
:1037D00001C04FF0000C83F803C01983DA76E0B91A
:1037E000E3001F4A1A4400EB44011C4B03EB411356
:1037F0009A6000EB4402194B03EB42139B680022D2
:103800001A60A4B900EB4400144B03EB4010426073
:10381000144BC3605DF8044B7047134A02EBC402BB
:1038200000EB44010D4B03EB41139A60E1E750B903
:10383000631EDB000D4A1A4400EB4400074B03EB08
:1038400040135A60E6E7631E094A02EBC30200EB2D
:103850004400024B03EB40104260DBE714160020EB
:103860008400105000011050800010500C001050C7
:103870000800105008B5038B3F3323F03F03C27E8E
:10388000022A08D008490A68C26013440B60074A3C
:10389000934202D808BD5B00F4E7054B054A52216C
:1038A0000548FFF7F1FA00BF181A0020FF0F10506B
:1038B000C4690010386F0010086A001070B500F07D
:1038C0007F054FEA450C0CEBD0130C4C04EB431472
:1038D000FFF76CFF05B970BD218B2046FFF7CAFFCB
:1038E000E27EE36883F0A04383F4801343EA8263BB
:1038F00043F0004362681360EDE700BF1416002038
:1039000008B500F07F035B0003EBD010024B03EB24
:10391000401000F01BF908BD1416002008B520B9AE
:1039200001210E20FCF7BAFE08BD034B034A40F20A
:1039300097110348FFF7A8FA786A0010286F001063
:10394000086A001008B528B9002211468020FFF748
:10395000D7FF08BD034B044A40F2A1110348FFF70B
:1039600093FA00BF786A0010186F0010086A001000
:10397000024B4FF48032DA64704700BF00201150D0
:1039800070B548BB064600F0C1F8174C0C23A3677E
:10399000FF2216490E20FCF7DBFE40252A460021B7
:1039A000134802F061FB002229461046FFF786FF0C
:1039B000002229468020FFF781FF02F055FC0125F7
:1039C00025644FF00053E3640A4BC4F8903030464E
:1039D000FFF7CEFF284670BD074B084A40F263113F
:1039E0000748FFF751FA00BF00001150990300206B
:1039F0001416002010D00100786A00104C6F0010DF
:103A0000086A0010044B197021B1044B4FF40032C6
:103A1000C3F89020704700BF821A00200020115088
:103A20000B7813F07F0F02D14B78052B00D0704735
:103A30004B88DBB2014A1360F9E700BF0000115068
:103A4000CA7802F00302012A09D008B50B4689881A
:103A5000C1F30A019878FFF731FF012008BD00206B
:103A6000704708B502F000FC08BD000010B530B981
:103A7000084611461A46FFF743FF012010BD034BCD
:103A8000034A4FF401710348FFF7FEF9786A00100A
:103A9000086F0010086A001008B511F07F0304D108
:103AA000CA090ED10220084A90665B0003EBD113CD
:103AB0004FF400620021054800EB431002F0ECFBDC
:103AC00008BD0120EFE700BF0020115014160020B0
:103AD00008B511F07F0300D108BD5B0003EBD113E3
:103AE000044800EB43100022C2706FF4006102F042
:103AF000D3FBF1E71416002004E011F8012B00F8C5
:103B0000012B1A46531E002AF7D1704708B54FF013
:103B100080530A4A136002F580521360084B9B6879
:103B200013F0805FFAD04FF480520021054802F074
:103B30009BFA054B09225A6708BD00BF00200240CE
:103B400000000240000010500000115070B5044603
:103B50000D461646837EABB9A6820023E38201237D
:103B6000A3762561204602F087FB20B10B4B4FF472
:103B70000032C3F89020204602F08AFB50B10123A6
:103B8000237770BD81780648FFF7DEFA204602F001
:103B900063FBE1E7204602F06BFBF2E700201150E7
:103BA000686B001038B50546002408E0D21A1B4B9C
:103BB00003EB4213DB68284698470134E4B2184B04
:103BC0001B782246591CA14215DBA342EED9154BA6
:103BD0001B6813EB4413EDD140F225221249134820
:103BE000FFF7B2FA4FF0E023D3F8F03D13F0010FE6
:103BF00013D000BE11E00E4C54220021204602F0EA
:103C000033FA4FF0FF336360A360E3602361202247
:103C1000FF2104F1140002F027FA38BD20700010D3
:103C2000811A0020F00F0020EC6F0010A06B001034
:103C3000C011002008B5FFF7B5FF00F041FF08BD37
:103C400070B505460C461646486900F043FF6369A7
:103C5000324601212846984770BD00002DE9F04FFB
:103C600083B08246481EC0B2FFF70EFD20B18346E6
:103C700043780193022B11D040F2D6326249634857
:103C8000FFF762FA4FF0E023D3F8F03D13F0010F95
:103C900000D000BE002003B0BDE8F08FC279C2F3AF
:103CA00040105B4B197860F304111970C2F3801255
:103CB000C9B262F3451119700BF10908BBF8023063
:103CC0009B447BE098F8033098F8002090447DE016
:103CD00040F2F1324C494D48FFF736FA4FF0E023FD
:103CE000D3F8F03D13F0010F00D000BE0020D2E762
:103CF000F31A484A02EB4319D9F810302A464146D4
:103D000050469847082801D985421ED20134E4B2B2
:103D1000414B1B7826465A1CA2424ADBA342E7D9F4
:103D20003E4B1B6813EB4419E6D140F2FA32364998
:103D30003648FFF709FA4FF0E023D3F8F03D13F0CF
:103D4000010F00D000BE0020A5E73B464F4681464C
:103D5000012B11D000218B4224D998F802200A446B
:103D6000D2B22B4810440079FF280BD128480244D6
:103D700014710131C9B2EEE73969294A9142E9D19A
:103D8000019BE7E740F219421F492048FFF7DCF9A1
:103D90004FF0E023D3F8F03D13F0010F00D000BE48
:103DA000002078E723464A4641461E4801F070FD50
:103DB000C844194B1B7801339E4212DCD84520D2EF
:103DC00098F801300B2B3FF47DAF012398F80120C8
:103DD000042A7FF47DAFABEB0805ADB200241F468B
:103DE00096E74FF4856208490848FFF7ADF94FF0B0
:103DF000E023D3F8F03D13F0010F00D000BE002007
:103E000049E7012047E700BFC06F0010A06B00101A
:103E1000C011002020700010811A0020F00F002037
:103E2000A54F0010D4110020704770470020704744
:103E30000020704738B505460C464B881A0AD8B2A0
:103E4000531E0E2B64D8DFE803F0082D4E63635930
:103E50002D636363636363632200FFF711FC024613
:103E600028B112232146284600F0D4FD51E040F24B
:103E70003A422C492C48FFF767F94FF0E023D3F87A
:103E8000F03D13F0010F00D000BE002041E0FFF72D
:103E9000B7F9024600283DD043882146284600F065
:103EA000B9FD36E0022A09D0FFF7C2FF024698B3F7
:103EB00053882146284600F0ADFD2AE0FFF7E4FBD9
:103EC00002460028F4D140F2614216491648FFF735
:103ED0003BF94FF0E023D3F8F03D13F0010F00D091
:103EE00000BE002015E0A188FFF7D2FB0246A8B172
:103EF00003782146284600F08DFD0AE0FFF796FF83
:103F0000024668B103782146284600F083FD00E0B0
:103F1000002038BD0020FCE70020FAE70020F8E789
:103F20000020F6E7A86F0010A06B001070477047E4
:103F300070477047024B5878003818BF012070470F
:103F4000C0110020024B1878C0F38000704700BFFA
:103F5000C0110020024B1878FF3818BF01207047AD
:103F6000580E0020F8B506460D46FFF7F3FF07464A
:103F7000002854D105B354220021374802F074F8C8
:103F8000364B00221A70364C2046FCF793FD354B19
:103F90001C60354C2046FCF7D7FD143C204602F04F
:103FA0002AF8324B1C60324B23B13248FFF744F9F8
:103FB000314B1860002417E04FF4E9722F49304864
:103FC000FFF7C2F84FF0E023D3F8F03D13F0010FF4
:103FD00025D000BE23E0D21A2A4B03EB42135B68C4
:103FE0007BB198470134E4B2224B1B782246591C1E
:103FF000A14216DBA342EED91F4B1B6813EB4413FF
:10400000EDD14FF4F8721D491D48FFF79DF84FF0B0
:10401000E023D3F8F03D13F0010F00D000BE384686
:10402000F8BD194B1E7029463046FFF7A9FC07461C
:1040300018B13046FFF772FCF1E74FF4FC720F49FC
:104040000F48FFF781F84FF0E023D3F8F03D13F06D
:10405000010FE4D000BEE2E7C0110020831A002067
:10406000B811002014120020500E00201812002059
:1040700039320010811A0020F00F0020107000105B
:10408000A06B001020700010580E002070B51A4B65
:104090001E788B7813F0700F0ED10C46174B997861
:1040A000204601F085FB0546B0B121463046FFF7BA
:1040B000C7FC0546284670BD40F20B521049114816
:1040C000FFF742F84FF0E023D3F8F03D13F0010F73
:1040D00000D000BE0025EDE740F20C520849094827
:1040E000FFF732F84FF0E023D3F8F03D13F0010F63
:1040F000E0D000BEDEE700BF580E0020C011002057
:10410000786F0010A06B00102DE9F84F80460C4628
:1041100016461F46DDF82890DDF82CA0002526E085
:1041200040F2E7421F492048FFF70EF84FF0E02326
:10413000D3F8F03D13F0010F00D000BE4FF0000B9C
:104140005846BDE8F88F4FF49D6216491648FEF7B1
:10415000FBFF4FF0E023D3F8F03D13F0010FEFD059
:1041600000BEEDE78AF8003023781C440135AE42EA
:1041700014DD6378052BD3D1E17801F00301B94256
:10418000CED121464046FFF781FF83460028DAD092
:10419000A378DA09E6D189F80030E5E74FF0010BA2
:1041A000CEE700BF886F0010A06B001008B501F0CB
:1041B0007F00400000EBD1103030044B1844044B1A
:1041C0001968043001F0AEFA08BD00BFC01100202C
:1041D0001412002008B501F07F00400000EBD11060
:1041E0003030044B1844044B1968043001F0C2FA13
:1041F00008BD00BFC01100201412002070B51F4878
:10420000007801F07F051E4C04EB450C0CEBD11C33
:104210009CF8344014F0010F1FD1CE09184C04EB68
:104220004504344494F834C04CF0010C84F834C094
:104230003034FFF71BFCF8B9227922F00102227119
:10424000227922F0040222714FF0E023D3F8F03DEE
:1042500013F0010F10D000BE0EE040F239520949B0
:104260000948FEF771FF4FF0E023D3F8F03D13F05B
:10427000010F00D000BE002070BD00BF580E00200E
:10428000C0110020686F0010A06B001038B501F05D
:104290007F05CC090A4B1878FFF7FEFB094B03EBAF
:1042A0004503234493F8342042F0020283F834207B
:1042B00093F8342042F0010283F8342038BD00BF67
:1042C000580E0020C011002038B501F07F05CC0940
:1042D0000A4B1878FFF7FCFB094B03EB450323441B
:1042E00093F8342022F0020283F8342093F834202B
:1042F00022F0010283F8342038BD00BF580E0020A0
:10430000C011002001F07F02044B03EB420303EBDA
:10431000D11191F83400C0F340007047C011002063
:104320002DE9F04182B006460C46002000F0D2FB99
:10433000237803F06003602B21D0402B32D0227809
:1043400002F01F02012A00F00281022A00F04381DC
:10435000002A40F0C981202B2ED0002B4DD163784C
:10436000092B00F2E980DFE813F0D400C400E70075
:10437000B400E7005200AE00E70061006E004FF4A9
:104380003572B249B248FEF7DFFE4FF0E023D3F8B2
:10439000F03D13F0010F00D000BE0025284602B00A
:1043A000BDE8F081AB4800F095FB22460121304684
:1043B000FEF72AFF0546F1E7A388DBB20F2B00F2D8
:1043C0009D81A54A13441B79A44A1278934206D2D0
:1043D000A34A116811EB431109D10025DEE7511CF6
:1043E0009942C0F28D819B1A9E4901EB43112246EE
:1043F0003046FFF725FC0546D0E74FF0E023D3F821
:10440000F03D13F0010F00D000BE0025C6E72046A6
:1044100000F066FB6188C9B23046FFF793FA8E4A16
:10442000137843F0020313700125B7E78A4B5B78DA
:104430008DF8063001230DF106022146304600F0CA
:10444000E9FA0125AAE76588EDB2834B5B78DBB218
:10445000AB4232D0804B5B785BB97F4B5D7055B31C
:1044600029463046FFF7FAFB054690B1FFF75EFD9F
:1044700023E000213046FFF7C5FA3046FFF7F1FA96
:10448000754F97F802803046FFF78CFB87F8028063
:10449000E3E74FF449726D496D48FEF755FE4FF062
:1044A000E023D3F8F03D13F0010F00D000BE6A4BBB
:1044B00000225A7072E7FFF73AFD2146304600F0BD
:1044C00095FA01256AE721463046FFF7B3FC054619
:1044D00064E76388012B01D000255FE75E4A13780B
:1044E00043F0080313702146304600F07FFA01259F
:1044F00054E76388012B01D000254FE7564A137813
:1045000023F0080313702146304600F06FFA0125AE
:1045100044E7514B1B789A08C3F3401302F00202A0
:104520001343ADF8063002230DF106022146304652
:1045300000F070FA012531E74FF0E023D3F8F03DA9
:1045400013F0010F00F0DE8000BE002526E7A388EF
:10455000DBB20F2B00F2D8803F4A13441B793F4A4D
:104560001278934222D23E4A116811EB431100F0B7
:10457000CD8022463046FFF763FB054600287FF4D6
:104580000DAF237813F0600F7FF408AF63780A3B18
:10459000012B3FF603AF00F09DFA63780A2B0ED093
:1045A0002146304600F022FA0125F7E6511C9942D7
:1045B000C0F2AE809B1A2B4901EB4311D9E70023CF
:1045C0008DF8063001230DF106022146304600F039
:1045D00021FA0125E2E6A288D1B202F07F05C2F3FA
:1045E000C01012F0700F17D11B4A02EB45020244B3
:1045F000127D1A48007882421ED21948056805EBE0
:1046000042158BB3002D00F08580224629463046A6
:10461000FFF716FB0546C1E640F295320B490C4800
:10462000FEF792FD4FF0E023D3F8F03D13F0010FB9
:1046300000D000BE0025B1E6451C954204DB121AED
:10464000084D05EB4215DCE70025DAE7D46F0010D2
:10465000A06B001009320010C0110020811A002048
:10466000F00F0020207000106378012B10D0032B76
:104670000ED07BBB3046FFF745FEADF806000223A7
:104680000DF106022146304600F0C4F9012585E609
:10469000628822B9012B19D03046FFF7F7FD002DB3
:1046A0003AD0224629463046FFF7CAFA002000F0E9
:1046B00011FA1B4B93F8355015F001057FF46EAEDF
:1046C0002146304600F092F9012567E63046FFF7B3
:1046D000FBFDE4E74FF0E023D3F8F03D13F0010FCA
:1046E00000D000BE002559E64FF0E023D3F8F03D9E
:1046F00013F0010F12D000BE00254FE600254DE655
:1047000000254BE6002549E6002547E6002545E65D
:10471000002543E6002541E601253FE600253DE66C
:10472000C011002010B584B0FFF714FC48B904B0E4
:1047300010BD9DF80400FFF77DFA9DF80820854B19
:104740009A70854B1C686369EFF3108272B6D3E8E8
:10475000CF0F01210028FAD1C3E8401F0028F6D16D
:10476000BFF35F8FA26101A9204601F0ECFB6169F4
:10477000A3690022C1E88F2F83F310880028D6D0C8
:104780009DF80530013B072B00F2DA8001A252F8B8
:1047900023F000BF33470010B54700102D4900102B
:1047A000F34800100D490010C3470010594800108D
:1047B0001F4900109DF80400FFF73CFAFFF7B7FB14
:1047C000BFE7664B1B78002B36D0644A1378013B59
:1047D000DBB213701378002BB3D15E4B1A7842F022
:1047E00001021A7093F8342022F0010283F8342079
:1047F00093F8342022F0040283F8342093F8352013
:1048000022F0010283F8352093F8352022F00402CB
:1048100083F8352002A99DF80400FFF781FD0028E8
:104820008FD100219DF80400FFF736F980219DF813
:104830000400FFF731F984E740F26522484949480E
:10484000FEF782FC4FF0E023D3F8F03D13F0010FA8
:104850003FF46DAF00BE6AE79DF8081001F07F00DD
:10486000CC093C4B03EB400303EBD11393F834200A
:1048700022F0010283F8342093F8342022F004025D
:1048800083F83420A8B1334B03EB400323441B7D52
:10489000354A1278934214D2344A126812EB431309
:1048A00017D09C69039B9DF809209DF80400A04740
:1048B00047E7039B9DF809209DF8040000F01EF9CE
:1048C0003FE7501C984204DB9B1A294A02EB431332
:1048D000E7E74FF4247222492248FEF735FC4FF0F7
:1048E000E023D3F8F03D13F0010F3FF420AF00BEFA
:1048F0001DE7184B1B7813F0010F3FF422AF154B47
:104900001878C0F3C000FFF713FB1AE7114B1B78B0
:1049100013F0010F3FF415AFFFF70BFB11E7029BFC
:10492000002B3FF40EAF039898470AE7094BDB785A
:1049300013F0010F3FF405AF0298FFF776FA00E796
:104940004FF0E023D3F8F03D13F0010F3FF4F9AE40
:1049500000BEF6E6C011002018120020831A0020C5
:1049600000700010A06B0010811A0020F00F0020D2
:104970002070001008B591F90030002B05DB802174
:1049800000231A46FFF73AFC08BD0021F8E70000B3
:10499000F8B50746134B9E89DD89741BA4B2402CE1
:1049A00028BF402493F90030002B08DB0021AE42E1
:1049B00013D00D4A23463846FFF720FCF8BDAE421F
:1049C00009D0084B9968402C09D82246064801F0C6
:1049D0009DFB8021EBE78021E9E70022EAE7002048
:1049E000ECE700BF801100204011002008B586468A
:1049F0000B46074A944608684968ACE80300002162
:104A00009160D181918119467046FFF7B3FF08BDCF
:104A10008011002038B505468C46264CA64608680D
:104A20004968AEE80300A2600021E181BCF80610ED
:104A30008B4228BF0B46A381BCF8061029B303B1F3
:104A400032B12846FFF7A4FF044680B1204638BDA6
:104A5000722219491948FEF777FB4FF0E023D3F88B
:104A6000F03D13F0010F00D000BE0024EEE77422E9
:104A700011491248FEF768FB4FF0E023D3F8F03DF0
:104A800013F0010FE2D000BEE0E761462846FFF7D1
:104A900071FF04460028D9D1762207490748FEF75E
:104AA00053FB4FF0E023D3F8F03D13F0010FCDD0CE
:104AB00000BECBE78011002078700010A06B0010C2
:104AC000034B00221A605A609A60DA601A617047DC
:104AD00080110020014B1861704700BF8011002039
:104AE0000146054B1A460068496803C200229A60D5
:104AF000DA819A81704700BF8011002038B50546E1
:104B00001C463D4B1B78DB09B3EBD11F1CD07CB19D
:104B10009D223A493A48FEF717FB4FF0E023D3F8BD
:104B2000F03D13F0010F00D000BE0024204638BD38
:104B3000314C2146FEF774FF23691BB12246032145
:104B4000284698470124F1E72B4B93F90030002BBE
:104B500007DB294B986800284CD02246294901F0F0
:104B6000D5FA254AD38913FA84F39BB2D38191688D
:104B700021449160D288934201D03F2C26D81E4B0D
:104B80001B6923B11C4A022128469847A0B11A4943
:104B90002846FFF7EFFE04460028C7D1C522174973
:104BA0001748FEF7D1FA4FF0E023D3F8F03D13F0A9
:104BB000010FBBD000BEB9E700212846FEF76CFF0D
:104BC00080212846FEF768FF0124AFE72846FFF75B
:104BD000DFFE04460028A9D1CD2208490848FEF787
:104BE000B3FA4FF0E023D3F8F03D13F0010F9DD05E
:104BF00000BE9BE7002499E7801100206070001040
:104C0000A06B00104011002038B50446FFF792F960
:104C100050B90023184633B1204BC82202FB04339D
:104C2000DB7843B9002038BDFFF78CF908B90123C0
:104C3000F0E70023EEE7154604FB05F51035174BAA
:104C40001D44284601F069F93F2801D80020EAE711
:104C5000124BC82202FB0433D9780020FFF7A6FAD2
:104C60000028E0D0284601F058F93F280CD90B491C
:104C7000C82303FB04114023094A02EBC412C9787C
:104C80000020FFF7BBFACEE7044BC82202FB043337
:104C9000D9780020FFF79EFA0020C4E778100020A2
:104CA000F40F002010B50446FFF744F908B90020BE
:104CB00010BDFFF747F948B9064BC82202FB043381
:104CC0001B7913F0010F03D00120F1E70020EFE77B
:104CD0000020EDE77810002008B5C82303FB00F0A2
:104CE0001030024B184401F0E7F808BD781000209E
:104CF00038B50446C82300FB03F3103308481844B2
:104D00004FF6FE739A4208D892B201F03BF905467D
:104D10002046FFF779FF284638BD4FF6FF72F4E7CB
:104D20007810002070B50546FFF704F918B9002384
:104D300043B9002070BDFFF705F908B90123F7E773
:104D40000023F5E7C82405FB04F42034224B1C445F
:104D50000434204601F0B0F808B90020EAE71E4B01
:104D6000C82202FB053399780020FFF71FFA08B923
:104D70000020DFE7EE014036184B1E44402231464A
:104D8000204601F0FFF80446D8B11349C82303FBBD
:104D900005110346324689780020FFF72FFA08B143
:104DA0002046C7E7D5220E490E48FEF7CDF94FF051
:104DB000E023D3F8F03D13F0010F00D000BE002037
:104DC000B8E7054BC82202FB053399780020FFF7AE
:104DD00001FA0020AEE700BF78100020F40F002099
:104DE000A8700010A06B001070B50546C82400FB29
:104DF00004F420340C4B1C4404344FF6FE739A42E6
:104E00000BD892B2204601F0F1F80646204601F098
:104E100053F83F2804D8304670BD4FF6FF72F1E7D3
:104E20002846FFF77FFFF6E77810002008B5C82373
:104E300003FB00F02030034B1844043001F06DF800
:104E400008BD00BF781000202DE9F04383B0C822D0
:104E50000021244801F008F90025234B1D7015B1ED
:104E600003B0BDE8F0831F4FC82405FB04F43E19CE
:104E7000FF2373714FF4E133B3604FF0000886F8FD
:104E80000C8086F80D800823B37304F1380104F117
:104E90001000CDF80080012340223944384400F04E
:104EA000DAFF04F1780104F1200038440123009373
:104EB00040223944043000F0CEFF04F1B809B9446F
:104EC0004846FBF7F7FDC0343C442046FBF7F2FDB3
:104ED000C6F81C80C6F820903463C6F834800135CB
:104EE000EDB2BCE7781000207410002000230BB155
:104EF000012070479C460C4AC82101FB0322116A1D
:104F0000106B31B1084AC82101FB03220021D16195
:104F1000116230B1044AC82101FB0C220021116347
:104F200051630133DBB2E2E77810002038B500248A
:104F300004B138BD2546C82304FB03F317495818AC
:104F40000022CA500271164B1B7813F0010F11D0CA
:104F5000134B1B7813F0020F15D0C82303FB05F089
:104F600020300E4B18440121043001F05FF8013469
:104F7000E4B2DDE7C82304FB03F31033084618440A
:104F800001F039F8E4E7C82005FB00F02030034BBE
:104F90001844043001F02FF8DFE700BF781000203C
:104FA000741000202DE9F04182B04B79022B7DD1A5
:104FB00006468B79022B7ED100273FB18FB98B78C3
:104FC00088F800300B78CC1809251EE0C8203B4B30
:104FD00000FB073898F80230002BEFD00137FFB202
:104FE000EBE740F2411236493648FEF7ADF84FF094
:104FF000E023D3F8F03D13F0010F00D000BE0025F0
:1050000055E023781D44ADB21C446378242B01D1B4
:105010009542F6D9052B09D06378042B02D1637928
:105020000A2B20D03846FFF7EFFD40E021463046FE
:10503000FFF72CF838B1A37888F8013023781D44A5
:10504000ADB21C44E8E740F253121D491D48FEF77B
:105050007BF84FF0E023D3F8F03D13F0010F00D0C0
:1050600000BE002523E021780D44ADB208F1020313
:10507000019308F10303009302231A4621443046AA
:10508000FFF742F810B10E35ADB2CBE74FF4B17275
:105090000B490C48FEF758F84FF0E023D3F8F03DE9
:1050A00013F0010F00D000BE002500E000252846C7
:1050B00002B0BDE8F0810025F9E700BF78100020BC
:1050C0009C700010A06B0010137803F06003202B7D
:1050D00078D170B59446002454B1002C74D19CF85A
:1050E0000130203B032B71D8DFE803F0102834583F
:1050F000C82304FB03F3394A03EB020ED25CBCF86D
:1051000004309A42E9D00134E4B2E5E7012903D042
:10511000032909D0012058E007230EF10802614657
:10512000FFF778FC012050E02D4B002B50D00EF102
:1051300008012046FEF786F8012046E0012901D04B
:10514000012042E007230EF108026146FFF762FCEE
:1051500001203AE0012903D0032906D0012034E0E0
:105160006146FFF743FC01202FE0BCF8023013F04A
:1051700001010D46C3F340068EF804300CBF012137
:1051800000210EF1240000F051FF164B13B33246FC
:1051900029462046AFF30080012016E0012903D004
:1051A000032906D0012010E06146FFF71FFC012013
:1051B0000BE00D4B83B1BCF802102046AFF300802A
:1051C000012002E000207047002070BD0020FCE7B5
:1051D0000120FAE70120F8E70120F6E77810002027
:1051E0004532001000000000000000002DE9F84FDB
:1051F00080460D461F4600245CB1BCB9A246F37838
:10520000AB4223D0B378AB4255D001242046BDE851
:10521000F88FC8233C4E03FB0466F378AB42ECD016
:10522000B378AB42E9D00134E4B2E5E74FF4E6727B
:1052300036493748FDF788FF4FF0E023D3F8F03DBB
:1052400013F0010F00D000BE0024DFE706F1100BC1
:10525000BAB2304901EBC411584600F0C7FE2E4BDC
:10526000DBB17379FF2B18D04FF0000901E009F191
:105270000109B94511D27279264B03EBCA1313F811
:1052800009309A42F3D1584600F02AFE0028EED1A8
:1052900071792046AFF30080E9E7204B1BB15846F7
:1052A00000F01EFE18B12046FFF7AEFCAAE720462C
:1052B000AFF30080F7E71A4B13B12046AFF300803D
:1052C0002046FFF72FFD08B101249FE706F12400D7
:1052D00000F0F2FDA0B9AFB117F03F0F01D00124EB
:1052E00094E7B1784046FEF761FF044608B901240F
:1052F0008CE700231A46B1784046FEF77FFF85E72A
:10530000012483E7012481E7781000208C700010CD
:10531000A06B0010F40F002000000000000000004F
:105320000000000090B90A4B4FF4137101FB0033E9
:1053300093F8293133B9064B01FB00335B791BB17C
:1053400001207047012070470020704700207047FF
:105350005C13002008B10020704708B54FF41372A9
:10536000034902FB0011043100F02CFB08BD00BF13
:105370005C1300202DE9F04784B04FF41372002134
:105380001E4800F071FE002414B104B0BDE8F0879F
:105390004FF4137504FB05F505F5A473174F3B4453
:1053A0000433E601DFF858A00AEBC41205F5947047
:1053B0004FF04009CDF80C9002924FF48078CDF870
:1053C0000480009300231A461946384400F085FAF9
:1053D00005F120033B4408334E445644E819CDF808
:1053E0000C900296CDF80480009300230122194608
:1053F000043000F072FA0134E4B2C5E75C13002017
:10540000DC12002070B500240CB1012070BD4FF4F7
:10541000137504FB05F505F59470054E304400F056
:1054200086FAA819043000F082FA0134E4B2EBE7FE
:105430005C1300202DE9F04100250DB1BDE8F0819D
:105440004FF4137405FB04F40B4E04EB060800271D
:10545000375504F59870304400F0CDFD04F1080094
:105460003044043000F0C7FD88F8297188F80570D1
:105470000135EDB2E1E700BF5C1300204B79FF2B53
:1054800040F094802DE9F04780460F460C780C449C
:10549000A518002616B10020BDE8F0873046FFF7BA
:1054A00041FF10B10136F6B2F4E74FF4137306FB77
:1054B00003F33F4A03EB0209B978D1542AE0AC4226
:1054C00071D221464046FEF7E1FD70B30136F6B2D7
:1054D000A378DB0938D109F5947A09F5987000F0C2
:1054E0008AFDA37889F82931A388C3F30A03B3F5A9
:1054F000007F14BF0023012399F8282163F34102A0
:1055000089F828215146404600F0A8FA00283BD0EF
:1055100023781C443B79B34245D96378052BCED020
:10552000AC42CCD223781C44F7E7E0222149224840
:10553000FDF70AFE4FF0E023D3F8F03D13F0010F22
:1055400000D000BE0020A7E709F10C0000F053FDD9
:10555000A37889F80530A388C3F30A03B3F5007F65
:1055600014BF0023012399F8042063F3410289F852
:1055700004200F48A9EB00008010104B03FB00F043
:10558000C0B2FFF7E7FEC3E7E8220A490A48FDF781
:10559000DBFD4FF0E023D3F8F03D13F0010F00D016
:1055A00000BE002078E7E11B88B275E70020704755
:1055B0005C130020C0700010A06B00109B1DB5088C
:1055C0002DE9F04105461F4600245CB1002C48D16E
:1055D000A04696F829318B4213D073798B422BD099
:1055E00001203FE04FF413731F4E03FB046696F84F
:1055F00029318B42EAD073798B42E7D00134E4B28F
:10560000E3E7B6F834317BB9184B33B1BAB2184975
:1056100001EBC8112046AFF3008006F594712846CF
:1056200000F01CFA01201DE0BAB2D6F82C1106F5E4
:10563000987000F0DBFCE7E70E4B1BB1B9B22046D7
:10564000AFF3008004363146284600F0BBF908B1BC
:10565000012007E03A463146284600F06BF9012068
:1056600000E00020BDE8F0815C1300200000000095
:10567000DC1200200000000010B582B051B10A46D3
:10568000012824D80B7813B323490B54012B2FD0B6
:1056900001242AE001238DF8043000208DF8050054
:1056A00001A9FEF75FFC044618B11B4B01221A70DA
:1056B0001BE0472219491A48FDF746FD4FF0E02349
:1056C000D3F8F03D13F0010F0FD000BE0DE05A22C9
:1056D00012491348FDF738FD4FF0E023D3F8F03DB1
:1056E00013F0010F00D000BE0024204602B010BD10
:1056F0001146FEF737FC04460028F6D15F22074921
:105700000748FDF721FD4FF0E023D3F8F03D13F0FB
:10571000010FEAD000BEE8E7B4110020407100108C
:10572000A06B001070B50446037813F001001FD180
:105730000D462378C3F3800613F0040F19D14FF000
:10574000FF31284600F08CFD237813F0010308D1C7
:10575000227812F0040F09D1237843F00403237058
:105760000126284600F090FD304602E01E46F8E78C
:10577000002070BD70B505460C464FF0FF31204645
:1057800000F06EFD2B78C3F3800613F0040F04D1F4
:10579000204600F079FD304670BD2B7813F0010FE4
:1057A00004D12B7823F004032B70F1E70026EFE7F8
:1057B00008B58388C3F30A02C37803F00303022BFE
:1057C0001DD0032B44D0012B5BD1022905D040F220
:1057D000FF33934204D3012054E04FF48063F8E791
:1057E000D12229492948FDF7AFFC4FF0E023D3F837
:1057F000F03D13F0010F00D000BE002042E002296E
:1058000003D0402A15D801203CE0B2F5007F01D139
:10581000012037E0D8221C491C48FDF795FC4FF0C9
:10582000E023D3F8F03D13F0010F00D000BE0020BC
:1058300028E0DB2214491548FDF786FC4FF0E023F1
:10584000D3F8F03D13F0010F00D000BE002019E0A6
:10585000022904D04023934204D3012012E04FF4E4
:105860008063F8E7E12208490848FDF76DFC4FF036
:10587000E023D3F8F03D13F0010F00D000BE00206C
:1058800000E0002008BD00BF2C710010A06B0010CC
:105890000A4404E05DF804FB91F800C061449142C1
:1058A0001AD291F801C0BCF1050FF5D100B591F8FD
:1058B00002C00CF07F0E00EB4E0E4FEADC1C0EF81F
:1058C0000C3091F800C061449142E3D291F801C0DC
:1058D000BCF1050FF5D1EAE77047F0B583B0044697
:1058E0001746089DBDF8246090F800C061F3000CD5
:1058F00000F808CB009301233246294600F0ABFAAA
:1059000005B13EB90A9B6360BDF82C30638001206D
:1059100003B0F0BD04F11C052846FBF7CBF827B116
:105920002B4600256361A561ECE70023FAE701201F
:1059300070470000F8B506460C4615460B7813F084
:10594000020F10D04FF4007704F1080000F0B4FA11
:1059500068BB75B3013F2F422DD1237813F0010F9F
:1059600003D0002024E04027EEE761783046FEF7C0
:105970001DFC0028F5D0237813F0010F0FD04FF451
:10598000B5720E490E48FDF7DFFB4FF0E023D3F868
:10599000F03D13F0010F00D000BE002008E000230E
:1059A0001A4661783046FEF729FC08B9E7E700207F
:1059B000F8BD0020FCE70020FAE700BF08710010E6
:1059C000A06B001070B506460C4601F1080528468C
:1059D00000F072FA00283BD0237813F0010F01D0B9
:1059E000002070BD61783046FEF7E0FB0028F7D05C
:1059F00062886168284600F0C5FA0546E8B1237858
:105A000013F0010F0FD04FF4BC7212491248FDF78A
:105A10009BFB4FF0E023D3F8F03D13F0010F00D0D3
:105A200000BE0020DDE70346626861783046FEF77D
:105A3000E5FB0028E7D02846D3E7237813F0010FD1
:105A400001D00020CDE761783046FEF7C3FBF8E7D0
:105A50000020C6E7EC700010A06B0010F8B50646F9
:105A60000C468B895BBB0B7813F0010F01D0002033
:105A7000F8BD4978FEF79AFB0028F8D063882278B1
:105A800012F0010F0FD04FF4D97238493848FDF7A2
:105A90005BFB4FF0E023D3F8F03D13F0010F00D093
:105AA00000BE0020E4E761783BB162683046FEF753
:105AB000A5FB0028E7D06088DAE70022F6E70B783C
:105AC00013F0020F0ED04FF4007504F108073846AA
:105AD00000F023FA854247D8237813F0010F03D052
